S00C000052435F312E73726563F3
S113000012C02CC02BC02AC029C028C027C026C0BB
S113001025C066C023C064C621C020C01FC01EC046
S11300201DC01CC01BC011241FBECFE5D4E0DEBF21
S1130030CDBF10E0A0E6B0E0EEEFFDE002C0059019
S11300400D92A436B107D9F720E0A4E6B0E001C0D0
S11300501D92A63BB207E1F716D6CFC6D1CF10BC8E
S113006080E189B982E08BB988E18AB9579A089509
S11300705D9BFECF8CB908955F9B05C02CB1FC013C
S1130080208381E0089580E008950F931F93CF9318
S1130090DF938B01EC01080F191F02C08991E8DF7F
S11300A0C017D107D9F75D9BFECFDF91CF911F9188
S11300B00F91089587B945E34A95F1F7000086EC5E
S11300C086B93699FECF24B135B1932F80E0AC01C7
S11300D0420F511DCA01089590E082C690E078C68F
S11300E01F920F920FB60F9211242F933F938F9369
S11300F09F93AF93BF938091AD009091AE00A09178
S1130100AF00B091B0003091B500232F2D5F2D3793
S113011020F40196A11DB11D05C0232F2A57029674
S1130120A11DB11D2093B5008093AD009093AE0046
S1130130A093AF00B093B0008091B1009091B20051
S1130140A091B300B091B4000196A11DB11D80939C
S1130150B1009093B200A093B300B093B400BF91E8
S1130160AF919F918F913F912F910F900FBE0F9060
S11301701F9018950F931F938FB7F8940091AD00BB
S11301801091AE002091AF003091B0008FBFB80144
S1130190C9011F910F9108950F931F939FB7F8946E
S11301A00091B1001091B2002091B3003091B400DD
S11301B082B708B600FE06C08F3F21F00F5F1F4FC5
S11301C02F4F3F4F9FBF322F212F102F0027080F93
S11301D0111D211D311D42E0000F111F221F331F6D
S11301E04A95D1F7B801C9011F910F910895CF9293
S11301F0DF92EF92FF92CF93DF936B017C01CCDF10
S1130200EB010DC0C9DF6C1B7D0B683E734038F0F9
S113021081E0C81AD108E108F108C851DC4FC114C3
S1130220D104E104F10471F7DF91CF91FF90EF90D5
S1130230DF90CF900895789483B7826083BF83B7AB
S1130240816083BF89B7816089BF1EBC8EB582601F
S11302508EBD8EB581608EBD8FB581608FBD85B535
S1130260846085BD85B5806485BD329A319A309AA3
S1130270379A1AB808956F927F928F929F92AF9295
S1130280BF92CF92DF92EF92FF920F931F93CF937F
S1130290DF9300D000D01F92CDB7DEB78C01198256
S11302A01A821B821C821D82A09AA89862E170E0C7
S11302B080E090E09CDFA89A82EC90E00197F1F74F
S11302C0A09884ED9EEFF8019183808393838283C9
S11302D081EE9EE205C0019719F42EEF3FEF58C05E
S11302E0989BF9CF81EE9EE202C00197B1F39899F1
S11302F0FCCF78E2E72EF12C612CE7E07E2ECC24B3
S1130300C394D12C03C0019719F4E7CF81EE9EE288
S1130310989BF9CF41DF4B015C0181EE9EE202C064
S11303200197D9F29899FCCF37DF681979098A09BE
S11303309B09693271058105910578F0E1E0F0E0EF
S1130340EC0FFD1FE60DF11DC601072C01C0880F3F
S11303500A94EAF79081982B9083711004C06394F7
S113036067E0762E01C07A94F1E0EF1AF10871F695
S11303708981F801808311829B8192831382890F82
S11303809D81981719F02FEF3FEF02C020E030E075
S1130390C9010F900F900F900F900F90DF91CF91A4
S11303A01F910F91FF90EF90DF90CF90BF90AF908F
S11303B09F908F907F906F900895FC0180818111B0
S11303C003C081E0808308951082089560917800CD
S11303D080E082DE6091790081E07EDE60917A00C7
S11303E082E07ADE60917B0083E076DE60917C00BF
S11303F084E072DE60917D0085E06ECE80E06EDE8A
S113040091E0811101C090E09093780081E066DE74
S113041091E0811101C090E09093790082E05EDE6A
S113042091E0811101C090E090937A0083E056DE60
S113043091E0811101C090E090937B0084E04EDE56
S113044091E0811101C090E090937C0085E046DE4C
S113045091E0811101C090E090937D0008952DE01A
S113046088E190E00FB6F894A89581BD0FBE21BD38
S11304708A9A92987894DFDE60E072EC81E090E0F2
S1130480EEDDBD9AC59A87B3886887BBBA9AB99AD4
S1130490B89A8F988E988D988C98979A969A959AE0
S11304A0949ABC988B98C49A939AA29AA39AA49863
S11304B0A598AC9AAD9A109274001092750010929F
S11304C076001092770010927E0010927F001092B6
S11304D0800010928100109282008FEF9FEFDC0168
S11304E08093830090938400A0938500B09386004A
S11304F08093870090938800A0938900B0938A002A
S113050080938B0090938C00A0938D00B0938E0009
S113051080938F0090939000A0939100B0939200E9
S11305206DDF1092700010927100109272001092A0
S113053073008898089580919A0087FF04C091E021
S11305409093740002C01092740086FF04C091E07E
S11305509093750002C01092750085FF04C091E06D
S11305609093760002C01092760084FF04C091E05C
S11305709093770002C01092770083FF04C091E04B
S11305809093780002C01092780082FF04C091E03A
S11305909093790002C01092790081FF04C091E029
S11305A090937A0002C010927A0080FF04C081E028
S11305B080937B0002C010927B0080919B0086FF99
S11305C004C091E090937C0002C010927C0085FFEF
S11305D004C091E090937D0002C010927D0084FFDE
S11305E004C091E090937E0002C010927E0083FFCD
S11305F004C091E090937F0002C010927F0082FFBC
S113060004C091E09093800002C01092800081FFAA
S113061004C091E09093810002C01092810080FF99
S113062004C081E08093820002C010928200CECE8A
S113063080917400882311F0C09A01C0C098809101
S11306407500882311F0C19A01C0C1988091760089
S1130650811108C080917C00882331F08091700062
S1130660882311F0C29A01C0C29880917700811149
S113067008C080917D00882331F080917100882327
S113068011F0C39A01C0C39880917E00882311F0B1
S1130690AA9A01C0AA9880917F00882311F0AB9A8E
S11306A00895AB98089580917800882309F44DC08B
S11306B08091830090918400A0918500B091860080
S11306C08F3F2FEF9207A207B20779F14091930071
S11306D050919400609195007091960048175907C5
S11306E06A077B0774F4405A55416F4F7F4F481B8C
S11306F0590B6A0B7B0B4133554761057105ACF00F
S113070009C0481B590B6A0B7B0B413355476105E4
S113071071055CF08FEF9FEFDC0180938300909371
S11307208400A0938500B093860084990EC08091C4
S1130730830090918400A0918500B09186008F3F42
S11307409F4FAF4FBF4F09F4FFC0809179008823BA
S113075009F44DC08091870090918800A091890090
S1130760B0918A008F3F2FEF9207A207B20779F169
S1130770409193005091940060919500709196007F
S1130780481759076A077B0774F4405A55416F4F5D
S11307907F4F481B590B6A0B7B0B4133554761054F
S11307A07105ACF009C0481B590B6A0B7B0B413334
S11307B05547610571055CF08FEF9FEFDC01809375
S11307C0870090938800A0938900B0938A0085994C
S11307D00EC08091870090918800A0918900B0910B
S11307E08A008F3F9F4FAF4FBF4F09F4C1C0809124
S11307F07A00882309F451C080917C0081114DC096
S113080080918B0090918C00A0918D00B0918E000E
S11308108F3F2FEF9207A207B20779F1409193001F
S11308205091940060919500709196004817590773
S11308306A077B0774F4405A55416F4F7F4F481B3A
S1130840590B6A0B7B0B4133554761057105ACF0BD
S113085009C0481B590B6A0B7B0B41335547610593
S113086071055CF08FEF9FEFDC0180938B00909318
S11308708C00A0938D00B0938E0086990EC0809159
S11308808B0090918C00A0918D00B0918E008F3FD1
S11308909F4FAF4FBF4F09F47FC080917B008823E7
S11308A009F4A1C080917D0081119DC080918F00C9
S11308B090919000A0919100B09192008F3F2FEF02
S11308C09207A207B20779F14091930050919400E6
S11308D06091950070919600481759076A077B0745
S11308E074F4405A55416F4F7F4F481B590B6A0BA4
S11308F07B0B4133554761057105ACF009C0481BBA
S1130900590B6A0B7B0B41335547610571055CF04C
S11309108FEF9FEFDC0180938F0090939000A09362
S11309209100B093920087995EC080918F0090915E
S11309309000A0919100B09192008F3F9F4FAF4FD4
S1130940BF4F09F050C03CC084E790E036DD809191
S1130950930090919400A0919500B091960080939B
S1130960830090938400A0938500B0938600EDCE1D
S113097085E790E022DD8091930090919400A0910E
S11309809500B09196008093870090938800A0937F
S11309908900B0938A002BCF86E790E00EDD80912A
S11309A0930090919400A0919500B091960080934B
S11309B08B0090938C00A0938D00B0938E006DCF2C
S11309C087E790E0FADC8091930090919400A091E5
S11309D09500B091960080938F0090939000A0931F
S11309E09100B093920008950F931F9380917C001F
S11309F0882351F1809172008823B1F0BBDB009110
S1130A006C0010916D0020916E0030916F00601B9E
S1130A10710B820B930B6B3071058105910520F0EE
S1130A20109272001092700086990EC081E080933B
S1130A307000809372009EDB60936C0070936D0075
S1130A4080936E0090936F0080917D008823A9F1BC
S1130A50809173008823F1F08DDB00916800109180
S1130A60690020916A0030916B00601B710B820B4E
S1130A70930B00916000109161002091620030910D
S1130A806300061717072807390720F4109273002C
S1130A901092710080B3881F8827881F813069F401
S1130AA0809371008093730065DB6093680070939A
S1130AB0690080936A0090936B001F910F910895D1
S1130AC0CF93DF93CDB7DEB72C970FB6F894DEBF84
S1130AD00FBECDBF19821A821B821C821D821E8208
S1130AE01F82188619861A861B861C86909A929AEB
S1130AF085E0898380917400882319F08A81806855
S1130B008A8380917500882319F08A8180648A839E
S1130B1080917600882319F08A8180628A8380918B
S1130B207700882319F08A8180618A838091780014
S1130B30882319F08A8188608A83809179008823C8
S1130B4019F08A8184608A8380917A00882319F05D
S1130B508A8182608A8380917B00882319F08A814C
S1130B6081608A8380917C00882319F08B81806462
S1130B708B8380917D00882319F08B8180628B8325
S1130B8080917E00882319F08B8180618B83809112
S1130B907F00882319F08B8188608B83809180008B
S1130BA0882319F08B8184608B8380918100882352
S1130BB019F08B8182608B8380918200882319F0E5
S1130BC08B8181608B8381E475DA292F332727FD9C
S1130BD03A95322F2C83482F8D83849B03C08E81BA
S1130BE080688E83859B03C08E8180648E83869B00
S1130BF003C08E8180628E83879B03C08E81806157
S1130C008E83209166002F83909164009887839B44
S1130C1003C0898580688987B49B03C08985806403
S1130C2089879C9B03C08985806289879D9B03C0BB
S1130C308985806189878A815981850F5B81850FC8
S1130C405E81850F5985850F820F890F840F830F6D
S1130C5081958A878EEF8B878DEF8C876CE070E0AF
S1130C60CE01019612DA61E070E080E090E0BFDA34
S1130C70929890982C960FB6F894DEBF0FBECDBF15
S1130C80DF91CF910895EBDBC0E2A89580919300AA
S1130C9090919400A0919500B09196000196A11DA9
S1130CA0B11D8093930090939400A0939500B0930A
S1130CB0960080369A4EA105B10571F488B38C274D
S1130CC088BB84E690E0D7DA1092930010929400E7
S1130CD01092950010929600E6DC86DEA9DCD5CF52
S1130CE01F920F920FB60F9211242F933F934F939D
S1130CF05F936F937F938F939F93AF93BF93EF9380
S1130D00FF934CC0E0919700F0919800CF010196B9
S1130D10909398008093970082309105ACF1E75648
S1130D20FF4FDF0111972C912E3F71F520812D3F4C
S1130D3059F5069729F580919900853089F48091B9
S1130D409A00853069F480919B00853049F4809144
S1130D509C00853029F4B4DE10929800109297001C
S1130D6080919900853061F480919A0090919B0064
S1130D70890F8B5F819590919C00891301C0DBDB07
S1130D80109298001092970080919700909198008B
S1130D90439724F010929800109297008091970046
S1130DA09091980087569F4F67D98111ABCFFF91DF
S1130DB0EF91BF91AF919F918F917F916F915F91CF
S1130DC04F913F912F910F900FBE0F901F90189548
S1130DD0E199FECF9FBB8EBBE09A99278DB308950E
S1130DE0262FE199FECF9FBB8EBB2DBB0FB6F89487
S1110DF0E29AE19A0FBE01960895F894FFCF9F
S1070DFEC8AF000076
S9030000FC
