S00C000052435F312E73726563F3
S113000012C02CC02BC02AC029C028C027C026C0BB
S113001025C066C023C071C621C020C01FC01EC039
S11300201DC01CC01BC011241FBECFE5D4E0DEBF21
S1130030CDBF10E0A0E6B0E0E8E1FEE002C005902C
S11300400D92A436B107D9F720E0A4E6B0E001C0D0
S11300501D92A73BB207E1F719D6DCC6D1CF10BC7D
S113006080E189B982E08BB988E18AB9579A089509
S11300705D9BFECF8CB908955F9B05C02CB1FC013C
S1130080208381E0089580E008950F931F93CF9318
S1130090DF938B01EC01080F191F02C08991E8DF7F
S11300A0C017D107D9F75D9BFECFDF91CF911F9188
S11300B00F91089587B945E34A95F1F7000086EC5E
S11300C086B93699FECF24B135B1932F80E0AC01C7
S11300D0420F511DCA01089590E08FC690E085C675
S11300E01F920F920FB60F9211242F933F938F9369
S11300F09F93AF93BF938091AE009091AF00A09176
S1130100B000B091B1003091B600232F2D5F2D3790
S113011020F40196A11DB11D05C0232F2A57029674
S1130120A11DB11D2093B6008093AE009093AF0043
S1130130A093B000B093B1008091B2009091B3004D
S1130140A091B400B091B5000196A11DB11D80939A
S1130150B2009093B300A093B400B093B500BF91E4
S1130160AF919F918F913F912F910F900FBE0F9060
S11301701F9018950F931F938FB7F8940091AE00BA
S11301801091AF002091B0003091B1008FBFB80141
S1130190C9011F910F9108950F931F939FB7F8946E
S11301A00091B2001091B3002091B4003091B500D9
S11301B082B708B600FE06C08F3F21F00F5F1F4FC5
S11301C02F4F3F4F9FBF322F212F102F0027080F93
S11301D0111D211D311D42E0000F111F221F331F6D
S11301E04A95D1F7B801C9011F910F910895CF9293
S11301F0DF92EF92FF92CF93DF936B017C01CCDF10
S1130200EB010DC0C9DF6C1B7D0B683E734038F0F9
S113021081E0C81AD108E108F108C851DC4FC114C3
S1130220D104E104F10471F7DF91CF91FF90EF90D5
S1130230DF90CF900895789483B7826083BF83B7AB
S1130240816083BF89B7816089BF1EBC8EB582601F
S11302508EBD8EB581608EBD8FB581608FBD85B535
S1130260846085BD85B5806485BD329A319A309AA3
S1130270379A1AB808956F927F928F929F92AF9295
S1130280BF92CF92DF92EF92FF920F931F93CF937F
S1130290DF9300D000D01F92CDB7DEB78C01198256
S11302A01A821B821C821D82A09AA89862E170E0C7
S11302B080E090E09CDFA89A82EC90E00197F1F74F
S11302C0A09884ED9EEFF8019183808393838283C9
S11302D081EE9EE205C0019719F42EEF3FEF58C05E
S11302E0989BF9CF81EE9EE202C00197B1F39899F1
S11302F0FCCF78E2E72EF12C612CE7E07E2ECC24B3
S1130300C394D12C03C0019719F4E7CF81EE9EE288
S1130310989BF9CF41DF4B015C0181EE9EE202C064
S11303200197D9F29899FCCF37DF681979098A09BE
S11303309B09693271058105910578F0E1E0F0E0EF
S1130340EC0FFD1FE60DF11DC601072C01C0880F3F
S11303500A94EAF79081982B9083711004C06394F7
S113036067E0762E01C07A94F1E0EF1AF10871F695
S11303708981F801808311829B8192831382890F82
S11303809D81981719F02FEF3FEF02C020E030E075
S1130390C9010F900F900F900F900F90DF91CF91A4
S11303A01F910F91FF90EF90DF90CF90BF90AF908F
S11303B09F908F907F906F900895FC0180818111B0
S11303C003C081E0808308951082089560917900CC
S11303D080E082DE60917A0081E07EDE60917B00C5
S11303E082E07ADE60917C0083E076DE60917D00BD
S11303F084E072DE60917E0085E06ECE80E06EDE89
S113040091E0811101C090E09093790081E066DE73
S113041091E0811101C090E090937A0082E05EDE69
S113042091E0811101C090E090937B0083E056DE5F
S113043091E0811101C090E090937C0084E04EDE55
S113044091E0811101C090E090937D0085E046DE4B
S113045091E0811101C090E090937E0008952DE019
S113046088E190E00FB6F894A89581BD0FBE21BD38
S11304708A9A92987894DFDE60E072EC81E090E0F2
S1130480EEDDBD9AC59A87B3886887BBBA9AB99AD4
S1130490B89A8F988E988D988C98979A969A959AE0
S11304A0949ABC988B98C49A939AA29AA39AA49863
S11304B0A598AC9AAD9A109275001092760010929D
S11304C077001092780010927F00109280001092B2
S11304D0810010928200109283008FEF9FEFDC0165
S11304E08093840090938500A0938600B093870046
S11304F08093880090938900A0938A00B0938B0026
S113050080938C0090938D00A0938E00B0938F0005
S11305108093900090939100A0939200B0939300E5
S113052081E0809370006ADF109271001092720073
S113053010927300109274008898089580919B0023
S113054087FF04C091E09093750002C0109275007B
S113055086FF04C091E09093760002C0109276006A
S113056085FF04C091E09093770002C01092770059
S113057084FF04C091E09093780002C01092780048
S113058083FF04C091E09093790002C01092790037
S113059082FF04C091E090937A0002C010927A0026
S11305A081FF04C091E090937B0002C010927B0015
S11305B080FF04C081E080937C0002C010927C0024
S11305C080919C0086FF04C091E090937D0002C05E
S11305D010927D0085FF04C091E090937E0002C0DC
S11305E010927E0084FF04C091E090937F0002C0CB
S11305F010927F0083FF04C091E09093800002C0BA
S11306001092800082FF04C091E09093810002C0A8
S11306101092810081FF04C091E09093820002C097
S11306201092820080FF04C081E08093830002C0A6
S113063010928300CBCE80917500882311F0C09A6C
S113064001C0C09880917600882311F0C19A01C03E
S1130650C19880917700811108C080917D00882322
S113066031F080917100882311F0C29A01C0C298C0
S113067080917800811108C080917E00882331F038
S113068080917200882311F0C39A01C0C3988091AD
S11306907F00882311F0AA9A01C0AA988091800053
S11306A0882311F0AB9A0895AB980895809179004E
S11306B0882309F44DC08091840090918500A09115
S11306C08600B09187008F3F2FEF9207A207B207F1
S11306D079F1409194005091950060919600709149
S11306E09700481759076A077B0774F4405A554125
S11306F06F4F7F4F481B590B6A0B7B0B4133554798
S113070061057105ACF009C0481B590B6A0B7B0BE2
S113071041335547610571055CF08FEF9FEFDC01B4
S11307208093840090938500A0938600B093870003
S113073084990EC08091840090918500A0918600D8
S1130740B09187008F3F9F4FAF4FBF4F09F4FFC059
S113075080917A00882309F44DC08091880090919B
S11307608900A0918A00B0918B008F3F2FEF9207F0
S1130770A207B20779F140919400509195006091DD
S1130780960070919700481759076A077B0774F41D
S1130790405A55416F4F7F4F481B590B6A0B7B0BD7
S11307A04133554761057105ACF009C0481B590B2D
S11307B06A0B7B0B41335547610571055CF08FEF84
S11307C09FEFDC018093880090938900A0938A00B6
S11307D0B0938B0085990EC0809188009091890018
S11307E0A0918A00B0918B008F3F9F4FAF4FBF4FB6
S11307F009F4C1C080917B00882309F451C0809121
S11308007D0081114DC080918C0090918D00A0914C
S11308108E00B0918F008F3F2FEF9207A207B2078F
S113082079F14091940050919500609196007091F7
S11308309700481759076A077B0774F4405A5541D3
S11308406F4F7F4F481B590B6A0B7B0B4133554746
S113085061057105ACF009C0481B590B6A0B7B0B91
S113086041335547610571055CF08FEF9FEFDC0163
S113087080938C0090938D00A0938E00B0938F0092
S113088086990EC080918C0090918D00A0918E006D
S1130890B0918F008F3F9F4FAF4FBF4F09F47FC080
S11308A080917C00882309F4A1C080917E0081118D
S11308B09DC08091900090919100A0919200B09180
S11308C093008F3F2FEF9207A207B20779F140916F
S11308D0940050919500609196007091970048178C
S11308E059076A077B0774F4405A55416F4F7F4F8D
S11308F0481B590B6A0B7B0B413355476105710546
S1130900ACF009C0481B590B6A0B7B0B41335547AC
S1130910610571055CF08FEF9FEFDC01809390001F
S113092090939100A0939200B093930087995EC036
S11309308091900090919100A0919200B0919300C9
S11309408F3F9F4FAF4FBF4F09F050C03CC085E76A
S113095090E033DD8091940090919500A0919600F1
S1130960B09197008093840090938500A0938600B3
S1130970B0938700EDCE86E790E01FDD8091940070
S113098090919500A0919600B09197008093880073
S113099090938900A0938A00B0938B002BCF87E7B4
S11309A090E00BDD8091940090919500A0919600C9
S11309B0B091970080938C0090938D00A0938E004B
S11309C0B0938F006DCF88E790E0F7DC80919400BE
S11309D090919500A0919600B0919700809390001B
S11309E090939100A0939200B093930008950F9375
S11309F01F9380917D00882351F180917300882397
S1130A00B1F0B8DB00916C0010916D0020916E0084
S1130A1030916F00601B710B820B930B6B3071056F
S1130A208105910520F0109273001092710086994F
S1130A300EC081E080937100809373009BDB609310
S1130A406C0070936D0080936E0090936F008091A2
S1130A507E008823A9F1809174008823F1F08ADB59
S1130A60009168001091690020916A0030916B0038
S1130A70601B710B820B930B00916000109161005D
S1130A802091620030916300061717072807390781
S1130A9020F4109274001092720080B3881F88278B
S1130AA0881F813069F4809372008093740062DB44
S1130AB0609368007093690080936A0090936B0060
S1130AC01F910F910895CF93DF93CDB7DEB72C9785
S1130AD00FB6F894DEBF0FBECDBF19821A821B82F7
S1130AE01C821D821E821F82188619861A861B8606
S1130AF01C86909A929A85E0898380917500882358
S1130B0019F08A8180688A8380917600882319F09D
S1130B108A8180648A8380917700882319F08A818E
S1130B2080628A8380917800882319F08A818061A9
S1130B308A8380917900882319F08A8188608A8366
S1130B4080917A00882319F08A8184608A83809155
S1130B507B00882319F08A8182608A8380917C00DB
S1130B60882319F08A8181608A8380917D0088239B
S1130B7019F08B8180648B8380917E00882319F027
S1130B808B8180628B8380917F00882319F08B8115
S1130B9080618B8380918000882319F08B81886029
S1130BA08B8380918100882319F08B8184608B83EF
S1130BB080918200882319F08B8182608B838091DD
S1130BC08300882319F08B8181608B8381E472DA3E
S1130BD0292F332727FD3A95322F2C83482F8D83D5
S1130BE0849B03C08E8180688E83859B03C08E8125
S1130BF080648E83869B03C08E8180628E83879BF4
S1130C0003C08E8180618E83209166002F83909132
S1130C1064009887839B03C0898580688987B49B17
S1130C2003C08985806489879C9B03C08985806211
S1130C3089879D9B03C08985806189878A815981C1
S1130C40850F5B81850F5E81850F5985850F820F26
S1130C50890F840F830F81958A878EEF8B878DEFA1
S1130C608C876CE070E0CE0101960FDA61E070E0F1
S1130C7080E090E0BCDA929890982C960FB6F894A5
S1130C80DEBF0FBECDBFDF91CF910895E8DBC0E298
S1130C90D1E0A8958091940090919500A091960040
S1130CA0B09197000196A11DB11D8093940090937B
S1130CB09500A0939600B093970080369A4EA105B4
S1130CC0B105B9F488B38C2788BB80917000882360
S1130CD031F01092700084E690E0CDDA02C0D09337
S1130CE07000109294001092950010929600109249
S1130CF09700DCDC7CDE9FDCCCCF1F920F920FB61A
S1130D000F9211242F933F934F935F936F937F938D
S1130D108F939F93AF93BF93EF93FF934CC0E09156
S1130D209800F0919900CF010196909399008093D7
S1130D30980082309105ACF1E656FF4FDF01119720
S1130D402C912E3F71F520812D3F59F5069729F5F9
S1130D5080919A00853089F480919B00853069F4F4
S1130D6080919C00853049F480919D00853029F460
S1130D70AADE109299001092980080919A00853012
S1130D8061F480919B0090919C00890F8B5F819509
S1130D9090919D00891301C0D1DB109299001092AB
S1130DA098008091980090919900439724F01092B4
S1130DB0990010929800809198009091990086561D
S1130DC09F4F5AD98111ABCFFF91EF91BF91AF9152
S1130DD09F918F917F916F915F914F913F912F914F
S1130DE00F900FBE0F901F901895E199FECF9FBBF7
S1130DF08EBBE09A99278DB30895262FE199FECFF3
S1130E009FBB8EBB2DBB0FB6F894E29AE19A0FBE3E
S10B0E1001960895F894FFCF48
S1070E18C8AF00005B
S9030000FC
