:1000000012C02CC02BC02AC029C028C027C026C0BF
:1000100025C066C023C015C721C020C01FC01EC098
:100020001DC01CC01BC011241FBECFE5D4E0DEBF25
:10003000CDBF10E0A0E6B0E0E0E6FFE002C0059032
:100040000D92AC36B107D9F720E0ACE6B0E001C0C4
:100050001D92A33EB207E1F7C9D680C7D1CF10BC2D
:1000600080E189B982E08BB988E18AB9579A08950D
:100070005D9BFECF8CB908955F9B05C02CB1FC0140
:10008000208381E0089580E008950F931F93CF931C
:10009000DF938B01EC01080F191F02C08991E8DF83
:1000A000C017D107D9F75D9BFECFDF91CF911F918C
:1000B0000F91089587B945E34A95F1F7000086EC62
:1000C00086B93699FECF24B135B1932F80E0AC01CB
:1000D000420F511DCA01089590E033C790E029C72F
:1000E0001F920F920FB60F9211242F933F938F936D
:1000F0009F93AF93BF938091DA009091DB00A09122
:10010000DC00B091DD003091E200232F2D5F2D3710
:1001100020F40196A11DB11D05C0232F2A57029678
:10012000A11DB11D2093E2008093DA009093DB00C3
:10013000A093DC00B093DD008091DE009091DF00A1
:10014000A091E000B091E1000196A11DB11D809346
:10015000DE009093DF00A093E000B093E100BF9138
:10016000AF919F918F913F912F910F900FBE0F9064
:100170001F9018950F931F938FB7F8940091DA0092
:100180001091DB002091DC003091DD008FBFB801C1
:10019000C9011F910F9108950F931F939FB7F89472
:1001A0000091DE001091DF002091E0003091E1002D
:1001B00082B708B600FE06C08F3F21F00F5F1F4FC9
:1001C0002F4F3F4F9FBF322F212F102F0027080F97
:1001D000111D211D311D42E0000F111F221F331F71
:1001E0004A95D1F7B801C9011F910F910895CF9297
:1001F000DF92EF92FF92CF93DF936B017C01CCDF14
:10020000EB010DC0C9DF6C1B7D0B683E734038F0FD
:1002100081E0C81AD108E108F108C851DC4FC114C7
:10022000D104E104F10471F7DF91CF91FF90EF90D9
:10023000DF90CF900895789483B7826083BF83B7AF
:10024000816083BF89B7816089BF1EBC8EB5826023
:100250008EBD8EB581608EBD8FB581608FBD85B539
:10026000846085BD85B5806485BD329A319A309AA7
:10027000379A1AB80895FC018081811103C081E08A
:1002800080830895108208956091A10080E024DFAA
:100290006091A20081E020DF6091A30082E01CDF7A
:1002A0006091A40083E018DF6091A50084E014DF72
:1002B0006091A60085E010DF6091A70086E00CDF6A
:1002C0006091A80087E008DF6091A90088E004DF62
:1002D0006091AA0089E000DF6091AB008AE0FCDE5B
:1002E0006091AC008BE0F8DE6091AD008CE0F4DE54
:1002F0006091AE008DE0F0DE6091AF008EE0ECCE5C
:1003000080E0ECDE91E0811101C090E09093A100CB
:1003100081E0E4DE91E0811101C090E09093A200C1
:1003200082E0DCDE91E0811101C090E09093A300B7
:1003300083E0D4DE91E0811101C090E09093A400AD
:1003400084E0CCDE91E0811101C090E09093A500A3
:1003500085E0C4DE91E0811101C090E09093A60099
:1003600086E0BCDE91E0811101C090E09093A7008F
:1003700087E0B4DE91E0811101C090E09093A80085
:1003800088E0ACDE91E0811101C090E09093A9007B
:1003900089E0A4DE91E0811101C090E09093AA0071
:1003A0008AE09CDE91E0811101C090E09093AB0067
:1003B0008BE094DE91E0811101C090E09093AC005D
:1003C0008CE08CDE91E0811101C090E09093AD0053
:1003D0008DE084DE91E0811101C090E09093AE0049
:1003E0008EE07CDE91E0811101C090E09093AF003F
:1003F00008952DE088E190E00FB6F894A89581BDAE
:100400000FBE21BD8A9A9298789415DF60E072EC55
:1004100081E090E024DEBD9AC59A87B3886887BBE7
:10042000BA9AB99AB89A8F988E988D988C98979A0C
:10043000969A959A949ABC988B98C49A939AA29AF1
:10044000A39AA498A598AC9AAD9A1092A100109284
:10045000A2001092A3001092A4001092AB00109280
:10046000AC001092AD001092AE001092AF008FEF72
:100470009FEFDC018093B0009093B100A093B20095
:10048000B093B3008093B4009093B500A093B600EE
:10049000B093B7008093B8009093B900A093BA00CE
:1004A000B093BB008093BC009093BD00A093BE00AE
:1004B000B093BF0081E080939C0022DF10929D00EA
:1004C00010929E0010929F001092A000889880B316
:1004D000829581708093740080B385FB882780F9B2
:1004E0008093750080B386FB882780F9809376001F
:1004F00081E0879B80E08093770080B383FB88272F
:1005000080F98093780086B382958170809379001A
:1005100083B38295817080937A0083B385FB8827AB
:1005200080F980937B0008958091C70087FF04C005
:1005300091E09093A10002C01092A10086FF04C038
:1005400091E09093A20002C01092A20085FF04C027
:1005500091E09093A30002C01092A30084FF04C016
:1005600091E09093A40002C01092A40083FF04C005
:1005700091E09093A50002C01092A50082FF04C0F4
:1005800091E09093A60002C01092A60081FF04C0E3
:1005900091E09093A70002C01092A70080FF04C0D2
:1005A00081E08093A80002C01092A8008091C8004A
:1005B00086FF04C091E09093A90002C01092A900A8
:1005C00085FF04C091E09093AA0002C01092AA0097
:1005D00084FF04C091E09093AB0002C01092AB0086
:1005E00083FF04C091E09093AC0002C01092AC0075
:1005F00082FF04C091E09093AD0002C01092AD0064
:1006000081FF04C091E09093AE0002C01092AE0052
:1006100080FF04C081E08093AF0002C01092AF0061
:1006200033CE8091A100882311F0C09A01C0C098F8
:100630008091A200882311F0C19A01C0C1988091D5
:10064000A300811108C08091A900882331F0809116
:100650009D00882311F0C29A01C0C2988091A40025
:10066000811108C08091AA00882331F080919E00FA
:10067000882311F0C39A01C0C3988091AB008823EE
:1006800011F0AA9A01C0AA988091AC00882311F0B9
:10069000AB9A0895AB980895BF92CF92DF92EF92F4
:1006A000FF920F931F93CF93DF93B62EDC01AA0F17
:1006B000BB1FAA0FBB1FFD01E458FF4F40815181B2
:1006C000628173814F3F2FEF52076207720769F112
:1006D0000091C0001091C1002091C2003091C30070
:1006E000C0906800D0906900E0906A00F0906B00C4
:1006F000EC01CC58DF4F041715072607370724F401
:10070000005A15412F4F3F4F041B150B260B370B7B
:10071000C016D106E206F30644F4B8824FEF5FEF4D
:10072000BA014083518362837383FC01EC58FF4F0D
:1007300080818B15C1F0FD01E458FF4F80819181CC
:10074000A281B3818F3F9F4FAF4FBF4F61F4809124
:10075000C0009091C100A091C200B091C3008083FD
:100760009183A283B383DF91CF911F910F91FF906B
:10077000EF90DF90CF90BF90089560B36295617065
:1007800080E090E089DF60B365FB662760F981E077
:1007900090E082DF60B366FB662760F982E090E05C
:1007A0007BDF61E0879B60E083E090E075DF60B312
:1007B00063FB662760F984E090E06EDF66B36295C4
:1007C000617085E090E068DF63B36295617086E0F8
:1007D00090E062DF63B365FB662760F987E090E035
:1007E0005BCF0F931F938091A500882309F461C00C
:1007F0008091B0009091B100A091B200B091B3008F
:100800008F3F2FEF9207A207B20769F14091C00016
:100810005091C1006091C2007091C30000916400CA
:1008200010916500209166003091670048175907C4
:100830006A077B0724F4405A55416F4F7F4F481B8E
:10084000590B6A0B7B0B04171507260737075CF457
:100850008FEF9FEFDC018093B0009093B100A093E5
:10086000B200B093B300909174008091AD009813E2
:1008700020C08091B0009091B100A091B200B091E1
:10088000B3008F3F9F4FAF4FBF4F99F481EA90E085
:10089000F2DC8091C0009091C100A091C200B091A3
:1008A000C3008093B0009093B100A093B200B093C6
:1008B000B3008091A600882309F461C08091B40040
:1008C0009091B500A091B600B091B7008F3F2FEF87
:1008D0009207A207B20769F14091C0005091C10090
:1008E0006091C2007091C300009164001091650096
:1008F0002091660030916700481759076A077B0707
:1009000024F4405A55416F4F7F4F481B590B6A0BD7
:100910007B0B04171507260737075CF48FEF9FEF53
:10092000DC018093B4009093B500A093B600B0931F
:10093000B700909175008091AE00981320C080910F
:10094000B4009091B500A091B600B091B7008F3F70
:100950009F4FAF4FBF4F99F482EA90E08CDC8091BB
:10096000C0009091C100A091C200B091C3008093DB
:10097000B4009093B500A093B600B093B7008091F7
:10098000A700882309F465C08091A900811161C086
:100990008091B8009091B900A091BA00B091BB00CD
:1009A0008F3F2FEF9207A207B20769F14091C00075
:1009B0005091C1006091C2007091C3000091640029
:1009C0001091650020916600309167004817590723
:1009D0006A077B0724F4405A55416F4F7F4F481BED
:1009E000590B6A0B7B0B04171507260737075CF4B6
:1009F0008FEF9FEFDC018093B8009093B900A09334
:100A0000BA00B093BB00909176008091AF0098132C
:100A100020C08091B8009091B900A091BA00B09127
:100A2000BB008F3F9F4FAF4FBF4F99F483EA90E0D9
:100A300022DC8091C0009091C100A091C200B091D1
:100A4000C3008093B8009093B900A093BA00B0930C
:100A5000BB008091A800882309F463C08091AA009C
:100A600081115FC08091BC009091BD00A091BE003B
:100A7000B091BF008F3F2FEF9207A207B20769F135
:100A80004091C0005091C1006091C2007091C300BC
:100A9000009164001091650020916600309167001C
:100AA000481759076A077B0724F4405A55416F4F8E
:100AB0007F4F481B590B6A0B7B0B04171507260742
:100AC00037075CF48FEF9FEFDC018093BC009093BD
:100AD000BD00A093BE00B093BF008091770081114C
:100AE00020C08091BC009091BD00A091BE00B0914B
:100AF000BF008F3F9F4FAF4FBF4F99F484EA90E004
:100B0000BADB8091C0009091C100A091C200B09169
:100B1000C3008093BC009093BD00A093BE00B0932F
:100B2000BF001F910F9108950F931F938091A9000B
:100B3000882371F180919F008823B1F01BDB009125
:100B40007000109171002091720030917300601B51
:100B5000710B820B930B6B3071058105910520F0B1
:100B600010929F0010929D00909176008091AF00AE
:100B700098130EC081E080939D0080939F00FADA65
:100B80006093700070937100809372009093730073
:100B90008091AA008823A1F18091A0008823F1F020
:100BA000E9DA00916C0010916D0020916E00309197
:100BB0006F00601B710B820B930B00916000109112
:100BC0006100209162003091630006171707280723
:100BD000390720F41092A00010929E0080917700B7
:100BE000882371F081E080939E008093A000C2DA98
:100BF00060936C0070936D0080936E0090936F0013
:100C00001F910F910895CF93DF93CDB7DEB72C9747
:100C10000FB6F894DEBF0FBECDBF19821A821B82B9
:100C20001C821D821E821F82188619861A861B86C8
:100C30001C86909A929A86E089838091A1008823ED
:100C400019F08A8180688A838091A200882319F034
:100C50008A8180648A838091A300882319F08A8125
:100C600080628A838091A400882319F08A81806140
:100C70008A838091A500882319F08A8188608A83FD
:100C80008091A600882319F08A8184608A838091EC
:100C9000A700882319F08A8182608A838091A80046
:100CA000882319F08A8181608A838091A900882332
:100CB00019F08B8180648B838091AA00882319F0BE
:100CC0008B8180628B838091AB00882319F08B81AC
:100CD00080618B838091AC00882319F08B818860C0
:100CE0008B838091AD00882319F08B8184608B8386
:100CF0008091AE00882319F08B8182608B83809174
:100D0000AF00882319F08B8181608B8381E4D2D975
:100D10009C838D8380917400882319F08E81806874
:100D20008E8380917500882319F08E8180648E8374
:100D300080917600882319F08E8180628E83809165
:100D40007700882319F08E8180618E8380E4B2D988
:100D5000292F332727FD3A95922F2F83282F888715
:100D600080917800882319F089858068898780912F
:100D70007900882319F089858064898780917A00B9
:100D8000882319F089858062898780917B00882378
:100D900019F08985806189878A813981830F3B8138
:100DA000830F3C81830F3D81830F3E81830F398503
:100DB000830F820F890F81958A878EEF8B878DEF46
:100DC0008C876CE070E0CE0101965FD961E070E045
:100DD00080E090E00CDA929890982C960FB6F894F8
:100DE000DEBF0FBECDBFDF91CF91089502DBC0E221
:100DF000A8958091C0009091C100A091C200B091CF
:100E0000C3000196A11DB11D8093C0009093C10045
:100E1000A093C200B093C30080369A4EA105B105DD
:100E200059F488B38C2788BB1092C0001092C1007F
:100E30001092C2001092C300A0DCD3DC75DEF1DB9F
:100E4000D7CF1F920F920FB60F9211242F933F937B
:100E50004F935F936F937F938F939F93AF93BF93C2
:100E6000EF93FF934CC0E091C400F091C500CF0117
:100E700001969093C5008093C40082309105ACF137
:100E8000EA53FF4FDF0111972C912E3F71F520811E
:100E90002D3F59F5069729F58091C600863089F4D3
:100EA0008091C700863069F48091C800863049F48B
:100EB0008091C900863029F4A6DE1092C5001092F8
:100EC000C4008091C600863061F48091C700909183
:100ED000C800890F8A5F81959091C900891301C06C
:100EE00023DB1092C5001092C4008091C400909141
:100EF000C500439724F01092C5001092C400809161
:100F0000C4009091C5008A539F4FB6D88111ABCFD2
:100F1000FF91EF91BF91AF919F918F917F916F91D1
:100F20005F914F913F912F910F900FBE0F901F90A7
:100F30001895E199FECF9FBB8EBBE09A99278DB3A0
:100F40000895262FE199FECF9FBB8EBB2DBB0FB618
:100F5000F894E29AE19A0FBE01960895F894FFCFB3
:0C0F6000C8AF00004C1D0000580200004B
:00000001FF
