:1000000012C02CC02BC02AC029C028C027C026C0BF
:1000100025C0A4C023C001C721C020C01FC01EC06E
:100020001DC01CC01BC011241FBECFE5D4E0DEBF25
:10003000CDBF10E0A0E6B0E0E6EBFFE002C0059027
:100040000D92A436B107D9F720E0A4E6B0E001C0D4
:100050001D92A63BB207E1F7B3D6ABC7D1CFCF9283
:10006000DF92EF92FF920F2EF0E9CF2EF0EDDF2E10
:10007000F3E0EF2EF12CF02DC60ED71EE81EF91E70
:10008000CC0CDD1CEE1CFF1CCC0CDD1CEE1CFF1C84
:10009000DC01CB01880F991FAA1FBB1F880F991F76
:1000A000AA1FBB1F9C01AD01220F331F441F551F08
:1000B000C701B60147D7DA01C9010197A109B10902
:1000C000892F9A2FAB2FBB2780BD215029B988E1FA
:1000D0008AB9579AFF90EF90DF90CF9008955D9B7B
:1000E000FECF8CB908955F9B05C02CB1FC01208325
:1000F00081E0089580E008950F931F93CF93DF93DD
:100100006115710551F0C82FD92F8B010C0F1D1FE0
:100110008991E5DFC017D107D9F75D9BFECFDF914D
:10012000CF911F910F91089587B943E04A95F1F758
:10013000000086EC86B93699FECF24B135B1932FF5
:1001400080E0AC01420F511D9A01842F932F089536
:1001500090E022D7089590E017D708951F920F924C
:100160000FB60F9211242F933F938F939F93AF93CA
:10017000BF938091AD009091AE00A091AF00B0917F
:10018000B0003091B500232F2D5F2D3720F401965C
:10019000A11DB11D05C0232F2A570296A11DB11D17
:1001A0002093B5008093AD009093AE00A093AF0074
:1001B000B093B0008091B1009091B200A091B300D3
:1001C000B091B4000196A11DB11D8093B100909330
:1001D000B200A093B300B093B400BF91AF919F91D0
:1001E0008F913F912F910F900FBE0F901F901895F8
:1001F0000F931F938FB7F8940091AD001091AE004C
:100200002091AF003091B0008FBF602F712F822FEF
:10021000932F1F910F9108959FB7F8944091B100CB
:100220005091B2006091B3007091B40082B708B6EB
:1002300000FE06C08F3F21F04F5F5F4F6F4F7F4F33
:100240009FBF762F652F542F4427480F511D611DE6
:10025000711D440F551F661F771F440F551F661FE2
:10026000771F252F862F972F642F722F0895CF92F7
:10027000DF92EF92FF92CF93DF936B017C01CCDF93
:10028000EB01C114D104E104F10491F0C5DF6C1B52
:100290007D0B683E734038F081E0C81AD108E10850
:1002A000F108C851DC4FC114D104E104F10471F725
:1002B000DF91CF91FF90EF90DF90CF90089501975D
:1002C00039F0880F991F880F991F02970197F1F74E
:1002D0000895789483B7826083BF83B7816083BFBA
:1002E00089B7816089BF1EBC8EB582608EBD8EB518
:1002F00081608EBD8FB581608FBD85B5846085BD01
:1003000085B5806485BD329A319A309A379A1AB889
:1003100008953F924F925F926F927F928F929F9239
:10032000AF92BF92CF92DF92EF92FF920F931F9303
:10033000CF93DF9300D000D01F92CDB7DEB75C0122
:1003400019821A821B821C821D82A09AA89862E1DF
:1003500070E080E090E08BDFA89A82E390E0AFDF6E
:10036000A09881EE9EE203C0019709F461C0989BBA
:10037000FBCF81EE9EE203C0019709F45CC098991F
:10038000FBCF08E210E0812C0F2EF7E09F2EF02D1E
:100390000F2EF1EEEF2EFEE2FF2EF02DCC24C394B3
:1003A000D12C0F2EF7E03F2EF02D03C0019711F452
:1003B00045C0C701989BFACF2FDF2B013C01C70135
:1003C00003C0019709F43DC09899FBCF25DFDC01FC
:1003D000CB0184199509A609B7098997A105B1052B
:1003E00080F0E1E0F0E0EC0FFD1FE80DF11DC6012B
:1003F000092C02C0880F991F0A94E2F79081892B7B
:100400008083911003C08394932C01C09A9401506F
:10041000110979F68981F501808311829B8192838C
:100420001382890F9D81981779F02FEF3FEF0EC04F
:100430002EEF3FEF0BC02EEF3FEF08C02EEF3FEF48
:1004400005C02EEF3FEF02C020E030E0822F932F57
:100450000F900F900F900F900F90DF91CF911F9101
:100460000F91FF90EF90DF90CF90BF90AF909F9053
:100470008F907F906F905F904F903F900895FC0118
:100480002081211103C021E020830895FC01108206
:1004900008956091780080E05BDE6091790081E0F2
:1004A00057DE60917A0082E053DE60917B0083E04A
:1004B0004FDE60917C0084E04BDE60917D0085E042
:1004C00047DE089580E047DE91E0811101C090E0B1
:1004D0009093780081E03FDE91E0811101C090E0CF
:1004E0009093790082E037DE91E0811101C090E0C5
:1004F00090937A0083E02FDE91E0811101C090E0BB
:1005000090937B0084E027DE91E0811101C090E0B0
:1005100090937C0085E01FDE91E0811101C090E0A6
:1005200090937D0008952DE088E190E00FB6F89457
:10053000A89581BD0FBE21BD8A9A92987894C9DE94
:1005400060E072EC81E090E08ADDBD9AC59A87B3E5
:10055000886887BBBA9AB99AB89A8F988E988D98FE
:100560008C98979A969A959A949ABC988B98C49AD4
:10057000939AA29AA39AA498A598AC9AAD9A10922D
:10058000740010927500109276001092770010920D
:100590007E0010927F0010928000109281001092D5
:1005A00082008FEF9FEFDC018093830090938400A3
:1005B000A0938500B0938600809387009093880075
:1005C000A0938900B0938A0080938B0090938C0055
:1005D000A0938D00B0938E0080938F009093900035
:1005E000A0939100B09392006DDF10927000109272
:1005F0007100109272001092730088980895809193
:100600009A00882324F491E09093740002C0109221
:10061000740086FF04C091E09093750002C01092B0
:10062000750085FF04C091E09093760002C010929F
:10063000760084FF04C091E09093770002C010928E
:10064000770083FF04C091E09093780002C010927D
:10065000780082FF04C091E09093790002C010926C
:10066000790081FF04C091E090937A0002C010925B
:100670007A0080FF04C081E080937B0002C010926A
:100680007B0080919B0086FF04C091E090937C00EA
:1006900002C010927C0085FF04C091E090937D0021
:1006A00002C010927D0084FF04C091E090937E0010
:1006B00002C010927E0083FF04C091E090937F00FF
:1006C00002C010927F0082FF04C091E090938000EE
:1006D00002C01092800081FF04C091E090938100DD
:1006E00002C01092810080FF04C081E080938200EC
:1006F00002C010928200CDDE08958091740088239C
:1007000011F0C09A01C0C09880917500882311F043
:10071000C19A01C0C19880917600882311F0C29AD5
:100720000BC080917C00882331F080917000882379
:1007300011F0C29A01C0C29880917700882311F00D
:10074000C39A0BC080917D00882331F080917100A5
:10075000882311F0C39A01C0C39880917E0088233A
:1007600011F0AA9A01C0AA9880917F00882311F005
:10077000AB9A0895AB98089580917800882309F486
:1007800058C08091830090918400A0918500B09121
:1007900086008F3F2FEF9207A207B207D1F1409159
:1007A00093005091940060919500709196004817C5
:1007B00059076A077B07CCF4405A55416F4F7F4F6A
:1007C000481B590B6A0B7B0B41335547610571057B
:1007D00004F18FEF9FEFDC018093830090938400FE
:1007E000A0938500B093860014C0481B590B6A0B78
:1007F0007B0B41335547610571055CF08FEF9FEF2F
:10080000DC018093830090938400A0938500B093D3
:10081000860084990EC08091830090918400A091FD
:100820008500B09186008F3F9F4FAF4FBF4F09F4B7
:1008300020C180917900882309F458C080918700F5
:1008400090918800A0918900B0918A008F3F2FEF8E
:100850009207A207B207D1F1409193005091940002
:100860006091950070919600481759076A077B07B9
:10087000CCF4405A55416F4F7F4F481B590B6A0BC0
:100880007B0B413355476105710504F18FEF9FEFF5
:10089000DC018093870090938800A0938900B09337
:1008A0008A0014C0481B590B6A0B7B0B4133554718
:1008B000610571055CF08FEF9FEFDC01809387008D
:1008C00090938800A0938900B0938A0085990EC008
:1008D0008091870090918800A0918900B0918A0052
:1008E0008F3F9F4FAF4FBF4F09F4D7C080917A0021
:1008F000882309F45CC080917C00811158C08091EC
:100900008B0090918C00A0918D00B0918E008F3F54
:100910002FEF9207A207B207D1F1409193005091B7
:1009200094006091950070919600481759076A07E6
:100930007B07CCF4405A55416F4F7F4F481B590BF2
:100940006A0B7B0B413355476105710504F18FEF4D
:100950009FEFDC0180938B0090938C00A0938D001F
:10096000B0938E0014C0481B590B6A0B7B0B4133AC
:100970005547610571055CF08FEF9FEFDC018093B7
:100980008B0090938C00A0938D00B0938E0086997D
:100990000EC080918B0090918C00A0918D00B09141
:1009A0008E008F3F9F4FAF4FBF4F09F48AC0809199
:1009B0007B00882309F4ACC080917D008111A8C020
:1009C00080918F0090919000A0919100B091920041
:1009D0008F3F2FEF9207A207B207D1F1409193000A
:1009E00050919400609195007091960048175907B6
:1009F0006A077B07CCF4405A55416F4F7F4F481B25
:100A0000590B6A0B7B0B413355476105710504F1A6
:100A10008FEF9FEFDC0180938F0090939000A09365
:100A20009100B093920014C0481B590B6A0B7B0BCA
:100A300041335547610571055CF08FEF9FEFDC0195
:100A400080938F0090939000A0939100B0939200B8
:100A500087995EC080918F0090919000A091910045
:100A6000B09192008F3F9F4FAF4FBF4F09F050C0E2
:100A70003CC084E790E003DD809193009091940066
:100A8000A0919500B091960080938300909384008C
:100A9000A0938500B0938600CCCE85E790E0EFDC94
:100AA0008091930090919400A0919500B091960050
:100AB0008093870090938800A0938900B0938A0068
:100AC00015CF86E790E0DBDC809193009091940055
:100AD000A0919500B091960080938B0090938C002C
:100AE000A0938D00B0938E0062CF87E790E0C7DCC3
:100AF0008091930090919400A0919500B091960000
:100B000080938F0090939000A0939100B0939200F7
:100B10000895CF92DF92EF92FF920F931F938091EF
:100B20007C00882359F1809172008823B9F060DB42
:100B300000916C0010916D0020916E0030916F005B
:100B4000DC01CB01801B910BA20BB30B0B97A10512
:100B5000B10520F0109272001092700086990EC0BC
:100B600081E0809370008093720042DB60936C00A0
:100B700070936D0080936E0090936F0080917D0064
:100B80008823A1F180917300882301F131DB00916A
:100B900068001091690020916A0030916B006B0130
:100BA0007C01C01AD10AE20AF30A80916000909198
:100BB0006100A0916200B09163008C159D05AE05A7
:100BC000BF0520F41092730010927100879B0EC035
:100BD00081E080937100809373000ADB609368006A
:100BE0007093690080936A0090936B001F910F913E
:100BF000FF90EF90DF90CF900895CF93DF93CDB724
:100C0000DEB72C970FB6F894DEBF0FBECDBF1982AA
:100C10001A821B821C821D821E821F8218861986E0
:100C20001A861B861C86909A929A85E08983809109
:100C30007400882319F08A8180688A838091750006
:100C4000882319F08A8180648A83809176008823C2
:100C500019F08A8180628A8380917700882319F055
:100C60008A8180618A8380917800882319F08A8143
:100C700088608A8380917900882319F08A81846052
:100C80008A8380917A00882319F08A8182608A831E
:100C900080917B00882319F08A8181608A8380910A
:100CA0007C00882319F08B8180648B8380917D0088
:100CB000882319F08B8180628B8380917E0088234A
:100CC00019F08B8180618B8380917F00882319F0DC
:100CD0008B8188608B8380918000882319F08B81C1
:100CE00084608B8380918100882319F08B818260DE
:100CF0008B8380918200882319F08B8181608B83A4
:100D000081E412DA292F332727FD3A95322F2C83DD
:100D1000282F8D83849B03C08E8180688E83859B62
:100D200003C08E8180648E83869B03C08E81806227
:100D30008E83879B03C08E8180618E839091660035
:100D40009F83809164008887839B03C049854068A6
:100D50004987B49B03C04985406449879C9B03C075
:100D60004985406249879D9B03C049854061498709
:100D70005A814981450F5B81450F5E81450F598539
:100D8000450F940F890F820F830F81958A878EEF0D
:100D90008B878DEF8C876CE070E0CE010196ACD92B
:100DA00061E070E080E090E062DA929890982C9692
:100DB0000FB6F894DEBF0FBECDBFDF91CF9108957F
:100DC000B2DBC0E2A8958091930090919400A0912D
:100DD0009500B09196000196A11DB11D80939300DE
:100DE00090939400A0939500B093960080369A4E0D
:100DF000A105B10571F488B38C2788BB84E690E027
:100E000088DA10929300109294001092950010923C
:100E10009600B2DC7EDE71DCD5CF1F920F920FB64A
:100E20000F921124CF92DF92EF92FF920F931F93B4
:100E30002F933F934F935F936F937F938F939F93E2
:100E4000AF93BF93CF93DF93EF93FF93C9E9D0E0C4
:100E50000AE910E00F2EFBE9CF2EF0E0DF2EF02D97
:100E60000F2EFCE9EF2EF0E0FF2EF02D49C020916F
:100E7000970030919800C901019690939800809353
:100E8000970082309105B4F1F901E856FF4F408197
:100E90004E3F81F5F901E756FF4F20812D3F51F577
:100EA000069719F58881853001F5F8018081853034
:100EB00081F4F6018081853061F4F701808185300D
:100EC00041F49BDE10929800109297008881853043
:100ED00061F4F8019081F6018081980F9B5F9195F4
:100EE000F7018081981301C08ADB1092980010925C
:100EF000970006C0439724F0109298001092970034
:100F0000809197009091980087569F4FECD881115F
:100F1000AECFFF91EF91DF91CF91BF91AF919F91B4
:100F20008F917F916F915F914F913F912F911F9181
:100F30000F91FF90EF90DF90CF900F900FBE0F902A
:100F40001F901895A1E21A2EAA1BBB1BFD010DC014
:100F5000AA1FBB1FEE1FFF1FA217B307E407F50769
:100F600020F0A21BB30BE40BF50B661F771F881F45
:100F7000991F1A9469F760957095809590959B01DB
:100F8000AC01BD01CF010895E199FECF9FBB8EBB9F
:100F9000E09A99278DB30895262FE199FECF9FBB44
:100FA0008EBB2DBB0FB6F894E29AE19A0FBE019664
:060FB0000895F894FFCF44
:040FB600C8AF0000C0
:00000001FF
